:100000000C948B000C94B3000C94B3000C94B300CC
:100010000C94B3000C94B3000C94B3000C94B30094
:100020000C94B3000C94B3000C94B3000C94B30084
:100030000C94B3000C94B3000C94B3000C94B30074
:100040000C9473080C94B3000C94CE040C94A80484
:100050000C94B3000C94B3000C94B3000C94B30054
:100060000C9400050C94B3000F0311031303150344
:1000700019031C031F032303250328032D03B309BE
:10008000C909C909C709C909B109C909C909C909FA
:10009000A509C909C909BA09C509C309C909C9090D
:1000A000C909C109000000002300260029003232DE
:1000B0003A30363A3230004A616E202032203230F7
:1000C00031390000000000240027002A0000000051
:1000D00000250028002B0004040404040404040286
:1000E00002020202020303030303030102040810D5
:1000F00020408001020408102001020408102000A2
:1001000000000800020100000304070000000000D6
:1001100000000000B70C11241FBECFEFD8E0DEBFF7
:10012000CDBF11E0A0E0B1E0E4E2FBE102C0059048
:100130000D92A633B107D9F723E0A6E3B1E001C0E1
:100140001D92AB30B207E1F710E0CBE8D0E004C07D
:100150002197FE010E94850DCA38D107C9F70E9478
:10016000BD080C94900D0C94000008950895CF9252
:10017000DF92EF92FF920F931F93CF93DF936C0167
:100180007A018B01C0E0D0E0CE15DF0581F0D80107
:100190006D918D01D601ED91FC910190F081E02DE2
:1001A000C6010995892B11F02196EECF7E01C7017A
:1001B000DF91CF911F910F91FF90EF90DF90CF9043
:1001C0000895FC01538D448D252F30E0842F90E05D
:1001D000821B930B541710F0CF9608950197089542
:1001E000FC01918D828D981761F0828DDF01A80F3F
:1001F000B11D5D968C91928D9F5F9F73928F90E061
:1002000008958FEF9FEF0895FC01918D828D9817CF
:1002100031F0828DE80FF11D858D90E008958FEF0C
:100220009FEF0895FC01918D228D892F90E0805CD5
:100230009F4F821B91098F739927089588EF91E052
:100240000E94120121E0892B09F420E0822F0895F9
:10025000FC01848DDF01A80FB11DA35ABF4F2C9163
:10026000848D90E001968F739927848FA689B78932
:100270002C93A089B1898C91837080648C93938D29
:10028000848D981306C00288F389E02D80818F7DCC
:1002900080830895EF92FF920F931F93CF93DF9384
:1002A000EC0181E0888F9B8D8C8D981305C0E889C7
:1002B000F989808185FD26C0F62E0B8D10E00F5F39
:1002C0001F4F0F731127E02E8C8DE8120CC00FB654
:1002D00007FCFACFE889F989808185FFF5CFCE0147
:1002E0000E942801F1CF8B8DFE01E80FF11DE35A2A
:1002F000FF4FF0829FB7F8940B8FEA89FB898081CA
:1003000080620AC09FB7F894EE89FF896083E8890C
:10031000F98980818370806480839FBF81E090E051
:10032000DF91CF911F910F91FF90EF900895CF93A0
:10033000DF93EC01888D8823C9F0EA89FB898081ED
:1003400085FD05C0A889B9898C9186FD0FC00FB6BF
:1003500007FCF5CF808185FFF2CFA889B9898C9100
:1003600085FFEDCFCE010E942801E7CFDF91CF912D
:10037000089580E090E0892B29F00E941E018111F0
:100380000C9400000895FC01908190539A3008F07D
:1003900090E0818180532AE0929F800D112408957E
:1003A00085ED8093BC008091BC0084FDFCCF109251
:1003B000F701089540915601262F30E0240F311D9A
:1003C00021323105DCF42091F7012430C9F4FC011D
:1003D00080E090E0861758F4309156012191DC01BD
:1003E000AA5CBE4FA30FB11D2C930196F3CF809151
:1003F0005601680F6093560180E0089581E00895EA
:1004000082E008950895E0918C0180918B01E817B6
:1004100030F4F0E0EF54FE4F808190E008958FEFCC
:100420009FEF089590918C0180918B01981750F463
:10043000E92FF0E0EF54FE4F208130E09F5F909372
:100440008C0102C02FEF3FEFC901089580918B010D
:1004500090E020918C01821B91090895CF92DF9248
:10046000EF92FF920F931F93CF93DF937C01CB0109
:100470008A0120918D01222389F0EB016B01C40ECA
:10048000D51ECC15DD0569F06991D701ED91FC9180
:100490000190F081E02DC7010995F3CF642F0E94F0
:1004A000DA01C801DF91CF911F910F91FF90EF907A
:1004B000DF90CF900895CF93DF931F92CDB7DEB733
:1004C000698320918D012223D1F02091B001203247
:1004D00040F021E030E0FC013383228380E090E0B3
:1004E00015C080918E01E82FF0E0E157FE4F998111
:1004F00090838F5F80938E018093B00105C061E08F
:10050000CE0101960E94DA0181E090E00F90DF9128
:10051000CF910895089580E090E0089580910201C0
:10052000873111F0883018F488EB91E002C088E937
:1005300098E0909301018093000108958091020159
:10054000E1E8F1E02AE0622F0E946B0D8183928343
:10055000809103010E946B0D8383948380918001BD
:100560000E946B0D858396830895CF92DF92EF9260
:10057000FF920F931F93CF93DF93FC01118511110D
:1005800002C010E020C0EC010E946708C880D9803A
:10059000EA80FB80DC01CB018C199D09AE09BF0903
:1005A000CC80DD80EE80FF808C159D05AE05BF05FB
:1005B00040F30885002339F00E9467086883798337
:1005C0008A839B83102F812FDF91CF911F910F91F1
:1005D000FF90EF90DF90CF9008951F93CF93DF931C
:1005E000162FD42FC22F682F82E00E94AE07612FF2
:1005F00083E00E94AE076D2F84E00E94AE076C2F4F
:1006000085E0DF91CF911F910C94AE0790E08B3085
:10061000910548F5FC01EC5CFF4F0C94850D20E042
:1006200009C020E00AC020E00BC020E041E060E00B
:1006300012C021E040E005C021E040E0F8CF21E019
:1006400041E060E00DC021E0F1CF20E040E007C0D4
:1006500020E040E061E081E004C021E041E061E0B1
:1006600080E00C94ED0208950E948B0DCF92DF92F2
:10067000EF92FF920F931F93CF93DF93EC0181E0F2
:1006800080938D0188E68093AF0110928E011092C5
:10069000B00160E085E992E00E945B020E94700672
:1006A00067E088E60E942E0610928C0180938B01F1
:1006B00085E992E00E9412028F77982F92959F70A1
:1006C0001AEF082F919F000D112485E992E00E94F6
:1006D00012029C01332794E0359527959A95E1F70E
:1006E000F82E129FF00C112485E992E00E9412026C
:1006F0009C01332744E0359527954A95E1F7E82E8C
:10070000129FE00C112485E992E00E94120285E913
:1007100092E00E9412029C01332754E03595279500
:100720005A95E1F7D82E129FD00C112485E992E05A
:100730000E9412029C01332764E0359527956A9543
:10074000E1F7C82E129FC00C112485E992E00E94A7
:1007500012029C01332774E0359527957A95E1F7CD
:10076000129F800D11248883C982DA82EB82FC8279
:100770000D83CE01DF91CF911F910F91FF90EF90EC
:10078000DF90CF9008950F931F93CF93DF93EC01E9
:100790008889811131C02A8130E0F901E150FF4F91
:1007A0008491F901E551FF4F0491F901E952FF4F9E
:1007B00014911123A1F081110E948507E12FF0E02F
:1007C000EE0FFF1FEC55FF4FA591B491EC91E02384
:1007D00031E020E009F430E0832F922F02C080E066
:1007E00090E03F852989232731E083278170822784
:1007F000988180FB90F99883888180FF2DC082FDCD
:100800002BC081FD09C0826088830E9467086B87C6
:100810007C878D879E8723C00E9467080B851C8577
:100820002D853E85AB01BC01401B510B620B730B48
:100830008B819C81A0E0B0E0481759076A077B07CD
:1008400070F0888199859F5F99878460806888832C
:1008500089818260898303C088818D7F88838881B4
:1008600080FD13C082FF2EC0837F806488830E9436
:1008700067086B877C878D879E8789818E7F8983B8
:1008800081FF03C08D7F84608983888182FF1AC0C5
:1008900080FF18C00E9467080B851C852D853E854A
:1008A000AB01BC01401B510B620B730B8D819E8110
:1008B000A0E0B0E0481759076A077B0718F0888165
:1008C00083FF1EC00E9467080B851C852D853E8511
:1008D000AB01BC01401B510B620B730B8D819E81E0
:1008E000A0E0B0E0481759076A077B07C0F0898588
:1008F0008823A9F08A8719868881806188830FC040
:100900001986886080628883898181608D7F898370
:100910000E9467086B877C878D879E87D3CFDF9186
:10092000CF911F910F910895CF93DF93EC018A89A6
:10093000882319F0CE010E94C303998192FB882776
:1009400080F992FF02C09B7F9983DF91CF91089538
:100950001F920F920FB60F9211242F933F934F9334
:100960005F936F937F938F939F93AF93BF93EF9317
:10097000FF9388EF91E00E942801FF91EF91BF91D2
:10098000AF919F918F917F916F915F914F913F9127
:100990002F910F900FBE0F901F9018951F920F92DE
:1009A0000FB60F9211242F938F939F93EF93FF9382
:1009B000E0910802F09109028081E0910E02F0912D
:1009C0000F0282FD12C09081809111028F5F8F73A0
:1009D00020911202821751F0E0911102F0E0E850EC
:1009E000FE4F958F8093110201C08081FF91EF919E
:1009F0009F918F912F910F900FBE0F901F90189580
:100A00001F920F920FB60F9211242F933F934F9383
:100A10005F936F937F938F939F93AF93BF93EF9366
:100A2000FF938091B900887F803609F49CC068F5F7
:100A3000883209F45BC090F4803109F454C038F472
:100A4000882309F4F6C0883009F44DC0F6C0883117
:100A500009F44CC0803209F45DC0EFC0803409F461
:100A600068C048F4803309F455C0883309F0E5C004
:100A70008093F501D8C0803509F44FC0883509F45A
:100A80005DC0883409F0D9C0D6C0883909F4C7C020
:100A9000A8F4883709F467C038F4883609F463C0CD
:100AA000803709F460C0C9C0883809F4B8C08039FB
:100AB00009F45FC0803809F0C0C05BC0803B09F416
:100AC00086C038F4803A09F466C0883A09F47FC0D9
:100AD000B4C0803C09F4A7C0883C09F4A4C0883B9A
:100AE00009F48AC0AAC08091F20110C09091F4016B
:100AF0008091F301981770F5E091F40181E08E0F79
:100B00008093F401F0E0EF52FE4F80818093BB00B0
:100B100085EC86C08093F5018EC0E091F40181E000
:100B20008E0F8093F4018091BB00F0E0EF52FE4FF6
:100B300080839091F4018091F3016EC0E091F40103
:100B400081E08E0F8093F4018091BB00F0E0EF52C2
:100B5000FE4F80838091F60181116DC081E080930A
:100B6000F10184EA61C083E08093F701109278017B
:100B7000CFCF80917801803208F051C0E0917801A8
:100B800081E08E0F809378018091BB00F0E0E85AFD
:100B9000FE4F8083BDCF85EC8093BC001092F7019F
:100BA00080917801803230F4E0917801F0E0E85AE9
:100BB000FE4F10826091780170E0E0917901F09130
:100BC0007A0188E591E009951092780136C084E0B9
:100BD0008093F7011092570110925601E0917B012A
:100BE000F0917C01099580915601811105C081E049
:100BF0008093560110923601E091570181E08E0FEB
:100C000080935701F0E0EA5CFE4F80818093BB0047
:100C10009091570180915601981708F479CF85E893
:100C20008093BC000AC085EC8093BC001092F70151
:100C300004C01092F5010E94D001FF91EF91BF9185
:100C4000AF919F918F917F916F915F914F913F9164
:100C50002F910F900FBE0F901F9018959091F70154
:100C60009111FCCF91E09093F7019093F6012FEF53
:100C70002093F5011092F401260F2093F301909335
:100C8000F2019091F201880F892B8093F2018091FB
:100C9000F101813061F41092F1018091F2018093B1
:100CA000BB008091BC0083FDF8CF85EC01C085EED0
:100CB0008093BC008091F7018130E1F38091F401D1
:100CC000861710F46091F401A1EDB1E0E1EBF1E0E1
:100CD00080E0861721F09D9191938F5FFACF089560
:100CE0003091B001313208F04BC08091F701811191
:100CF000FCCF9091AF0122E02093F70121E02093F7
:100D0000F6012FEF2093F5011092F4013093F301D7
:100D1000EFE8F1E0A1EDB1E020E0321721F04191E0
:100D20004D932F5FFACF1092F2012091F201990FAB
:100D3000922B9093F2019091F101913061F4109215
:100D4000F1019091F2019093BB009091BC0093FD52
:100D5000F8CF95EC01C095EE9093BC009091F7010F
:100D60009230E1F39091F5019F3F79F08091F50188
:100D7000803241F08091F501803331F084E005C08C
:100D800081E003C082E001C083E010928E011092E6
:100D9000B00110928D01089581E080938D0188E665
:100DA0008093AF0110928E011092B0016FE085E93F
:100DB00092E00E945B020E94700661E088E60E9459
:100DC0002E0610928C0180938B0185E992E00E949F
:100DD00012020895FF920F931F93CF93DF938C011C
:100DE000FF24F394F0928D01D8E6D093AF011092D6
:100DF0008E011092B00160E085E992E00E945B02F2
:100E0000F8012581CAE0822F6C2F0E946B0D682F9C
:100E1000660F860F880F682F620F85E992E00E94A7
:100E20005B02F8012481822F6C2F0E946B0D682FCA
:100E3000660F860F880F682F620F85E992E00E9487
:100E40005B02F8012381822F6C2F0E946B0D682FAB
:100E5000660F860F880F682F620F85E992E00E9467
:100E60005B0260E085E992E00E945B02F80122816A
:100E7000822F6C2F0E946B0D682F660F860F880FD4
:100E8000682F620F85E992E00E945B02F8012181E0
:100E9000822F6C2F0E946B0D682F660F860F880FB4
:100EA000682F620F85E992E00E945B02F8012081C1
:100EB000822F6C2F0E946B0D682F660F860F880F94
:100EC000682F620F85E992E00E945B020E94700623
:100ED0000E94CC06C82FF0928D01D093AF011092E2
:100EE0008E011092B0016FE085E992E00E945B02F2
:100EF0006C2F6F7785E992E00E945B02DF91CF91C2
:100F00001F910F91FF900C947006833081F028F4AC
:100F1000813099F08230A1F008958730A9F08830AF
:100F2000B9F08430D1F4809180008F7D03C080912E
:100F300080008F7780938000089584B58F7702C0FA
:100F400084B58F7D84BD08958091B0008F7703C0F4
:100F50008091B0008F7D8093B00008951F93CF9350
:100F6000DF93282F30E0F901E150FF4F8491F90120
:100F7000E551FF4FD491F901E952FF4FC491CC23C1
:100F8000C1F0162F81110E948507EC2FF0E0EE0FC3
:100F9000FF1FE353FF4FA591B4919FB7F894111130
:100FA00004C08C91D095D82302C0EC91DE2BDC9349
:100FB0009FBFDF91CF911F910895CF93DF9390E072
:100FC000FC01E551FF4F2491FC01E952FF4F849150
:100FD000882361F190E0880F991FFC01ED53FF4FCA
:100FE000C591D491FC01E353FF4FA591B4916111D8
:100FF00009C09FB7F8948881209582238883EC915B
:101000002E230BC0623061F49FB7F8948881322F91
:10101000309583238883EC912E2B2C939FBF06C0A1
:101020008FB7F894E8812E2B28838FBFDF91CF9163
:101030000895CF93DF93EC0119861A861B861C86D0
:101040001D861E861F86188A198A1A8A83E08A835B
:101050008CE390E09C838B8384EF91E09E838D836F
:1010600080E991E098878F8362E083E00E94DD074A
:1010700081E0898B60E08A810E94DD071F86DF9115
:10108000CF9108953FB7F89480910703909108039A
:10109000A0910903B0910A0326B5A89B05C02F3F74
:1010A00019F00196A11DB11D3FBFBA2FA92F982F8E
:1010B0008827820F911DA11DB11DBC01CD0142E009
:1010C000660F771F881F991F4A95D1F708952FB78C
:1010D000F89460910303709104038091050390914B
:1010E00006032FBF08951F920F920FB60F9211247F
:1010F0002F933F938F939F93AF93BF93809103035D
:1011000090910403A0910503B0910603309102036E
:1011100023E0230F2D3720F40196A11DB11D05C03A
:1011200026E8230F0296A11DB11D20930203809390
:10113000030390930403A0930503B09306038091E7
:10114000070390910803A0910903B0910A03019647
:10115000A11DB11D8093070390930803A093090379
:10116000B0930A03BF91AF919F918F913F912F91BF
:101170000F900FBE0F901F901895CF93DF93CDB7B0
:10118000DEB762970FB6F894DEBF0FBECDBF78947E
:1011900084B5826084BD84B5816084BD85B582607C
:1011A00085BD85B5816085BD80916E00816080932D
:1011B0006E00109281008091810082608093810096
:1011C00080918100816080938100809180008160A6
:1011D000809380008091B10084608093B100809101
:1011E000B00081608093B00080917A008460809329
:1011F0007A0080917A00826080937A0080917A00F0
:10120000816080937A0080917A00806880937A0070
:101210001092C100E0910802F091090282E08083FF
:10122000E0910402F09105021082E0910602F09133
:1012300007028FEC808310921002E0910C02F09173
:101240000D0286E08083E0910A02F0910B0280811A
:1012500080618083E0910A02F0910B0280818860B6
:101260008083E0910A02F0910B0280818068808384
:10127000E0910A02F0910B0280818F7D808380E9EA
:1012800091E09093CD028093CC028AE590E0909318
:10129000CB028093CA0210928C0110928B011092A3
:1012A0008E011092B0011092F70181E08093F60157
:1012B0001092F10161E082E10E94AE0761E083E1FA
:1012C0000E94AE078091B9008E7F8093B900809113
:1012D000B9008D7F8093B90088E48093B80085E4DD
:1012E0008093BC0085EB90E090937C0180937B0120
:1012F00086EB90E090937A01809379010E94CC066E
:1013000090E0880F892F881F990B892B09F461C001
:101310004BE050E067EB70E0CE0101960E94620D59
:10132000CE010A960E94C3018C87E9818E2FEE0FB1
:10133000990BAA0BBB0BFC01E154F109E331F10558
:1013400040F5E15CFF4F0C94850D8A81813639F0C0
:101350008B818E3611F486E01BC087E019C081E0D6
:1013600017C082E015C08B81823711F484E010C071
:1013700088E00EC08B81823711F483E009C085E0DC
:1013800007C089E005C08AE003C08BE001C08CE0A3
:101390008D87CE0105960E94C3018E8748E050E0FC
:1013A0006EEA70E0CE0101960E94620DCE010196B8
:1013B0000E94C3018F87CE0104960E94C301888BCF
:1013C000CE0107960E94C301898BCE010C960E9424
:1013D000EA06CE0101960E9436038E818093800139
:1013E0008D81809303018C818093020161E082E012
:1013F0000E94DD0761E083E00E94DD0761E084E098
:101400000E94DD0761E085E00E94DD0761E087E082
:101410000E94DD0761E08DE00E94DD0761E08CE065
:101420000E94DD0761E08BE00E94DD0761E08AE059
:101430000E94DD0761E089E00E94DD0761E088E04D
:101440000E94DD070E949E020E948E027724739400
:101450002AE0622E38EC232E312C412C512C40E214
:10146000C42E43E0D42EE12CF12C50E1852E57E21E
:10147000952EA12CB12C80910103882389F10E9423
:1014800042080091F8021091F9022091FA0230917D
:10149000FB02DC01CB01801B910BA20BB30B009173
:1014A000FC021091FD022091FE023091FF02801794
:1014B0009107A207B307A0F080910003882309F4E5
:1014C0008DC10E9442086093F8027093F9028093E4
:1014D000FA029093FB0282C180917F018111BDC10C
:1014E00084EE92E00E94B5028823F1F030918A01E7
:1014F0003A8B3230C8F480917F01872580937F0139
:10150000882391F0809180018F5F8C330CF0DDC1D6
:1015100080938001809103018C330CF013C23A89CF
:10152000311102C00E949E0280E480937C00809171
:101530007A00806480937A0080917A0086FDFCCFE7
:10154000009178008091790010E0182B7092D702FA
:101550009801295E334091E02731310508F090E091
:101560008091D60289279091C70280FB90F99093D1
:10157000C70287EC92E00E94C3031092D7027092D8
:10158000C40291E09801235B32402238310508F013
:1015900090E08091C30289279091B40280FB90F97A
:1015A0009093B40284EB92E00E94C3031092C402B1
:1015B0007092B1020957110991E0003A110508F043
:1015C00090E08091B00289279091A10280FB90F970
:1015D0009093A10281EA92E00E94C3031092B102AB
:1015E00080918A01833009F099C084EB92E00E94D7
:1015F00094048823F1F09091890180910201911166
:1016000014C0909103019F5F9C331CF490930301DD
:1016100005C0109203018F5F809302018091020147
:1016200088313CF01092020104C08F5F8093020168
:10163000F7CF81EA92E00E949404882301F190910F
:10164000890180910201911116C09091030191507E
:1016500097FD03C09093030106C09BE390930301A1
:101660008150809302018091020187FF08C0E7E169
:10167000E093020104C0815080930201F6CF8AED0D
:1016800092E00E94B502882311F110918801112384
:1016900049F0C092DE02D092DF02E092E002F092C6
:1016A000E10208C02092DE023092DF024092E002A6
:1016B0005092E1020E9467086093DA027093DB02A5
:1016C0008093DC029093DD021725109388018091AE
:1016D0000201662D0E94770D809382019093830111
:1016E00080910301662D0E94770D80938401909371
:1016F00085011092860110928701809188018823CC
:1017000069F080918901882329F0609282016092BA
:10171000830104C0609284016092850180918A01F6
:10172000811112C08091D902882321F087EC92E0C8
:101730000E94C3038091C70285FF06C08F7D8093FE
:10174000C702F3E0F0938A0180918A01833009F0A7
:1017500042C08091D902882321F087EC92E00E9458
:10176000C3038091C70285FF30C08F7D8093C7027D
:101770000E949E0210928A011092800180910301C2
:101780009091020123E129837A827B829C838D835D
:101790001E82CE0101960E94EA060E948E0280926D
:1017A000F2029092F302A092F402B092F5020E942B
:1017B00067086093EE027093EF028093F0029093BB
:1017C000F10280918A01833031F487EC92E00E942B
:1017D00094048111C6C00E94B9014DCE80917E0152
:1017E000882309F445C010927E01809100019091F8
:1017F0000101092E000CAA0BBB0B8093FC029093F5
:10180000FD02A093FE02B093FF020E944208609383
:10181000F8027093F9028093FA029093FB02809190
:101820007D018F5F873018F480937D0102C0109294
:101830007D0100917D01002309F44ECE10E0F801F6
:10184000EF57FE4F80810E940603000F111FF80121
:10185000EC5FFE4F61E0808106C080918A0181309B
:1018600029F061E087E00E94AE073ACE60E0FACF4F
:1018700070927E01E0917D01F0E0EE0FFF1FEC5FC2
:10188000FE4F60E080810E94AE0780910001909140
:10189000010128EB3BE0281B390BC901092E000C84
:1018A000AA0BBB0B8093FC029093FD02A093FE0257
:1018B000B093FF020E9442086093F8027093F9020D
:1018C0008093FA029093FB020BCE109280018091DC
:1018D00003018F5F80930301813011F08A3019F486
:1018E00004E011E00AC08431D9F38E31C9F38832A3
:1018F000B9F3823309F00ECEF3CFF80180810E5F89
:101900001F4F61E00E94AE0722E131E0201731074E
:10191000A1F710E0812F0E9406038BE193E001976D
:10192000F1F71F5F1A30B1F7CE0101960E9436031E
:101930008E81809380018D81809303018C818093BF
:101940000201E8CD10920301809102018F5F88317E
:101950001CF48093020102C0109202010E948E02C8
:10196000DECD8091890187258093890134CF0F9343
:101970001F93CF93E8EFF1E01382128288EE93E099
:10198000A0E0B0E084839583A683B78326E131E0AD
:101990003183208325EC30E03587248724EC30E048
:1019A0003787268720EC30E0318B208B21EC30E02C
:1019B000338B228B22EC30E0358B248B26EC30E00D
:1019C000378B268B118E128E138E148EE5E9F2E082
:1019D0001382128284839583A683B78388E291E081
:1019E0009183808308EF12E0F80110821182128245
:1019F0001382C1E0C087C18788EB9BE0A0E0B0E024
:101A000084839583A683B7830E944208F80160838C
:101A10007183828393830EEE12E0F80110821182AB
:101A200012821382C087C18780E197E2A0E0B0E014
:101A300084839583A683B7830E946708F801608337
:101A400071838283938304EE12E0F8011082118285
:101A500012821382C087C18784EF91E0A0E0B0E0DA
:101A600084839583A683B7830E946708F801608307
:101A70007183828393830AED12E0F8011082118250
:101A800012821382C087C18780E293E0A0E0B0E0B9
:101A900084839583A683B7830E946708F8016083D7
:101AA00071838283938387EC92E00E94190884EB10
:101AB00092E00E94190881EA92E0CF911F910F9164
:101AC0000C941908FB01DC0102C005900D924150F5
:101AD0005040D8F70895991B79E004C0991F9617D4
:101AE00008F0961B881F7A95C9F78095089587FBA3
:101AF000082E062687FD819567FD61950E946B0D76
:101B00000EF4919507FC81950895EE0FFF1F059047
:101B1000F491E02D099481E090E0F8940C94900DFC
:041B2000F894FFCF67
:101B240098080A0A07000D000C000B000A000900BF
:101B34000800000000004A01B700E100970112010B
:101B4400F0000401000000005B022E028B0202027E
:061B54002602120203024A
:107E0000112484B714BE81FFF0D085E080938100F7
:107E100082E08093C00088E18093C10086E0809377
:107E2000C20080E18093C4008EE0C9D0259A86E02C
:107E300020E33CEF91E0309385002093840096BBD3
:107E4000B09BFECF1D9AA8958150A9F7CC24DD24C4
:107E500088248394B5E0AB2EA1E19A2EF3E0BF2EE7
:107E6000A2D0813461F49FD0082FAFD0023811F036
:107E7000013811F484E001C083E08DD089C08234E0
:107E800011F484E103C0853419F485E0A6D080C0E4
:107E9000853579F488D0E82EFF2485D0082F10E0AE
:107EA000102F00270E291F29000F111F8ED06801E7
:107EB0006FC0863521F484E090D080E0DECF843638
:107EC00009F040C070D06FD0082F6DD080E0C81688
:107ED00080E7D80618F4F601B7BEE895C0E0D1E017
:107EE00062D089930C17E1F7F0E0CF16F0E7DF06D8
:107EF00018F0F601B7BEE89568D007B600FCFDCFD4
:107F0000A601A0E0B1E02C9130E011968C91119780
:107F100090E0982F8827822B932B1296FA010C0160
:107F200087BEE89511244E5F5F4FF1E0A038BF0790
:107F300051F7F601A7BEE89507B600FCFDCF97BE46
:107F4000E89526C08437B1F42ED02DD0F82E2BD052
:107F50003CD0F601EF2C8F010F5F1F4F84911BD097
:107F6000EA94F801C1F70894C11CD11CFA94CF0C13
:107F7000D11C0EC0853739F428D08EE10CD085E9AC
:107F80000AD08FE07ACF813511F488E018D01DD067
:107F900080E101D065CF982F8091C00085FFFCCF94
:107FA0009093C60008958091C00087FFFCCF809118
:107FB000C00084FD01C0A8958091C6000895E0E648
:107FC000F0E098E1908380830895EDDF803219F02E
:107FD00088E0F5DFFFCF84E1DECF1F93182FE3DFCA
:107FE0001150E9F7F2DF1F91089580E0E8DFEE27F6
:047FF000FF270994CA
:027FFE00040479
:0400000300007E007B
:00000001FF
